:02000000772C5B
:10000600073083120313F3000030F40080307406C7
:10001600F00080307002031D122800307302031CAA
:100026003F287308F0005808F100700803191F28CC
:10003600F10CF113FF3E1928711C252886140608B9
:10004600F200282886100608F2002130FD00FD0B7C
:100056002A2806140230FC004B30FD00FD0B312827
:10006600FC0B312806102130FD00FD0B382801302D
:10007600F302031CF4030928861006150230FC005F
:100086004B30FD00FD0B4528FC0B452806110800EA
:100096008030831203135405AF0040305405F0003E
:1000A6007008AF0420305405F0007008AF0410301B
:1000B6005405F0007008AF045508031964282F157D
:1000C60065282F11560803196A28AF146B28AF103C
:1000D6005708031970282F1471282F1008302F0481
:1000E600D80003202130FD00FD0B7728F7302F05BF
:0E00F600D80003202130FD00FD0B7F280800FC
:10010400831203135308D400D5013A08D6003B08E0
:10011400D7004B205308F000F00D7010F00D701054
:10012400F00D7010F00D70107008D3007008D4003A
:0E013400D5013A08D6003B08D7004B20080042
:10014200831203135308D4000130D5003A08D600B5
:100152003B08D7004B205308F000F00D7010F00D53
:100162007010F00D7010F00D70107008D300700850
:10017200D4000130D5003A08D6003B08D7004B2006
:02018200080073
:10018400013083120313BA000630D3008220080022
:0E01940083120313BA010630D3008220080044
:1001A200023083120313D30082200130D300822055
:0201B200080043
:1001B4008312031350080319E1282D15E2282D1189
:1001C40051080319E728AD14E828AD1052080319A3
:1001D400ED282D14EE282D102D08D30082200800C0
:1001E40083120313FB01FA01F901F801A001730D55
:1001F400F80D7408F8027508031C750FF9027608E7
:10020400031C760FFA027708031C770FFB02000128
:10021400031C0130A002F30D0730FC00730DF80D30
:10022400F90DFA0DFB0DA00D7408731C2B29F802AF
:100234007508031C750FF9027608031C760FFA0281
:100244007708031C770FFB020001031C0130A00296
:100254003C29F80775080318750FF9077608031881
:10026400760FFA0777080318770FFB0700010318C6
:100274000130A007F30DFC0B1029720DF80DF90DD8
:10028400FA0DFB0DA00D7408731C5A29F8027508A9
:10029400031C750FF9027608031C760FFA0277081F
:1002A400031C770FFB020001031C0130A0026B2921
:1002B400F80775080318750FF90776080318760F01
:1002C400FA0777080318770FFB07000103180130BA
:1002D400A007F20D0730FC00720DF80DF90DFA0DB0
:1002E400FB0DA00D7408721C8929F8027508031C03
:1002F400750FF9027608031C760FFA027708031CBF
:10030400770FFB020001031C0130A0029A29F807B1
:1003140075080318750FF90776080318760FFA079E
:1003240077080318770FFB07000103180130A007B3
:10033400F20DFC0B6E29710DF80DF90DFA0DFB0D84
:10034400A00D7408721CB829F8027508031C750FF7
:10035400F9027608031C760FFA027708031C770F5C
:10036400FB020001031C0130A002C929F80775082B
:100374000318750FF90776080318760FFA0777083C
:100384000318770FFB07000103180130A007F10DD4
:100394000730FC00710DF80DF90DFA0DFB0DA00DE1
:1003A4007408711CE729F8027508031C750FF9021B
:1003B4007608031C760FFA027708031C770FFB02FA
:1003C4000001031C0130A002F829F807750803187E
:1003D400750FF90776080318760FFA0777080318DC
:1003E400770FFB07000103180130A007F10DFC0B88
:1003F400CC29700DF80DF90DFA0DFB0DA00D740844
:10040400711C162AF8027508031C750FF902760888
:10041400031C760FFA027708031C770FFB02000116
:10042400031C0130A002272AF80775080318750F6A
:10043400F90776080318760FFA0777080318770F79
:10044400FB07000103180130A007F00D0730FC0082
:10045400700DF80DF90DFA0DFB0DA00D7408701C4C
:10046400452AF8027508031C750FF9027608031C67
:10047400760FFA027708031C770FFB020001031CB6
:100484000130A002562AF80775080318750FF907FA
:1004940076080318760FFA0777080318770FFB0717
:1004A400000103180130A007F00DFC0B2A2A701874
:1004B400692A7408F80775080318750FF907760890
:1004C4000318760FFA0777080318770FFB0708005D
:1004D400831203135108031D772A80305204D3007A
:1004E40082205008D300A1207E2AC0305204D300B9
:0A04F40082205008D300A120080068
:1004FE0083120313500884000008F200721A882A2F
:10050E00AE14500884000008F200721E9D2AAE1C24
:10051E009D2AAE104130FC00EE30FD00FD0B952AF9
:10052E00FC0B952A00000130F000F22A50088400DE
:10053E000008F200F21AA42A2E15500884000008B2
:10054E00F200721EB92A2E1DB92A2E114130FC005E
:10055E00EE30FD00FD0BB12AFC0BB12A000002307B
:10056E00F000F22A500884000008F200721BC02A24
:10057E00AE15500884000008F200721FD52AAE1D79
:10058E00D52AAE114130FC00EE30FD00FD0BCD2A18
:10059E00FC0BCD2A00000330F000F22A5008840034
:1005AE000008F200F21BDC2A2E1650088400000808
:1005BE00F200F21FF12A2E1EF12A2E124130FC00FB
:1005CE00EE30FD00FD0BE92AFC0BE92A0000043099
:0805DE00F000F22AF001080010
:0E05E600831203133D088A003C0882000800BF
:1005F400013083120313BB000630D30082200800AD
:0E06040083120313BB010630D30082200800CE
:1006120083120313CB011030F4002730F500F601EA
:10062200F7014008F0004108F1004208F2004308D7
:10063200F300F2207008CC007108CD007208CE00E1
:100642007308CF004C08C6001030F4002730F500C4
:10065200F601F7014008F0004108F1004208F200FB
:100662004308F300F2207808F0007908F1007A08D4
:10067200F2007B08F300E830F4000330F500F601E5
:10068200F701F2207008C700E830F4000330F500EB
:10069200F601F7014008F0004108F1004208F200BB
:1006A2004308F300F2207808F0007908F1007A0894
:1006B200F2007B08F3006430F400F501F601F70163
:1006C200F2207008C8006430F400F501F601F70169
:1006D2004008F0004108F1004208F2004308F3002C
:1006E200F2207808F0007908F1007A08F2007B081D
:1006F200F3000A30F400F501F601F701F220700868
:10070200C9000A30F400F501F601F7014008F000D3
:100712004108F1004208F2004308F300F220780891
:10072200F0007908F1007A08F2007B08F300700803
:10073200CA004C08031DA82B4B08031DA82B203010
:10074200D0004408D1004508D2006A22B22B3030D2
:100752004607D0004408D1004508D2006A22013081
:10076200CB004708031DBC2B4B08031DBC2B2030BC
:10077200D300A120C22B30304707D300A120013083
:10078200CB004808031DCC2B4B08031DCC2B20307B
:10079200D300A120D22B30304807D300A120013052
:1007A200CB004908031DDC2B4B08031DDC2B20303A
:1007B200D300A120E22B30304907D300A120013021
:0C07C200CB0030304A07D300A120080013
:1007CE0083120313C3014108031DF22B8030420430
:1007DE00D3008220F62BC0304204D300822043087F
:1007EE00400784000008003A0319052C430840070F
:0E07FE0084000008D300A120C30AF62B0800D7
:10080C00063083120313D0007F227008B0001A2C1C
:10081C00FA22C2202A2CFA22CA202A2C0223C22015
:10082C002A2C0223CA202A2C3008013A03190E2C38
:10083C003008023A0319112C3008033A0319142C0E
:0A084C003008043A0319172C0800C5
:10085600F3228A110A128000840ABC0A0319BD0A0F
:08086600F003031D2B2C080018
:10086E003F3083120313FC005530FD00FD0B3D2C71
:10087E00FC0B3D2C3030D400D501D601D7014B20D6
:10088E000730FC007D30FD00FD0B4B2CFC0B4B2C80
:10089E003030D400D501D601D7014B203130FD00C8
:1008AE00FD0B572C000000003030D400D501D601CE
:1008BE00D7014B202030D400D501D601D7014B20D3
:1008CE002830D30082200130D000D101D201DA20AD
:1008DE000130D30082200630D3008220D1200800C0
:1008EE00EE24003083120313BE000030BF00073029
:1008FE009F00F8308316860037248230FC00DD30EE
:10090E00FD00FD0B882CFC0B882C00000000013034
:10091E00D000D101D201DA20FA22C2200223CA204D
:10092E002130C000C101C201E7232530C0000130D3
:10093E00C100C201E7233130C000C1010530C20041
:10094E00E7233E08C0003F08C100C201C3010130C9
:10095E00C4000B30C5000923BE0A0319BF0A0330B9
:10096E003F02031DBC2CE8303E02031CC02CBE010E
:10097E00BF018230FC00DD30FD00FD0BC42CFC0BF2
:0C098E00C42C000000000624A82CCC2C77
:1009DC00213084001B3083120313F000D230BC0092
:0809EC000430BD002B240800BB
:0809A40050344934433400349F
:1009AC0044346534763465346C346F3470340034CC
:0209BC000834FD
:0209BE00003403
:0209C000003401
:0209C2000034FF
:1009C40043346F3475346E347434653472343A3469
:0209D4000034ED
:0209D6000034EB
:0209D8000034E9
:02400E006A2125
:00000001FF
